:020000040800F2
:1000000094020020BD13000889030008470200087D
:10001000950300089B030008A103000800000000EE
:10002000000000000000000000000000A70300081E
:10003000B303000800000000CB010008950500088C
:10004000091400080914000809140008091400081C
:10005000091400080914000809140008091400080C
:1000600009140008091400080914000809140008FC
:1000700009140008091400080914000809140008EC
:1000800009140008091400080914000809140008DC
:1000900009140008091400080914000809140008CC
:1000A00009140008091400080914000809140008BC
:1000B00009140008091400080914000809140008AC
:1000C000091400080914000809140008091400089C
:1000D0000914000861060008091400080914000842
:1000E000091400080914000809140008091400087C
:1000F000091400080914000809140008091400086C
:10010000091400080914000809140008091400085B
:10011000091400080914000809140008091400084B
:10012000091400080914000809140008091400083B
:1001300010B5054C237833B9044B13B10448AFF321
:1001400000800123237010BD9402002000000000F5
:10015000E09800080C4B43B10C4810B50C49AFF3C4
:1001600000800C48036823B910BD0A48036833B9FE
:100170007047094B002BF7D0BDE810401847064BDD
:10018000002BF5D0184700BF00000000E0980008E1
:10019000980200209400002000000000EFF310807F
:1001A00072B6704780F310887047364A1368012B87
:1001B00004D04FF001031360334A1060334A1160DA
:1001C00033484FF0805101607047EFF3108272B6F0
:1001D0002C48016891B14FF0000101602A48016884
:1001E00029B1EFF3098121E9F00F00680160274987
:1001F00009680968B1E8F00F81F3098882F3108873
:100200004EF0040E7047214908601F494FF000006E
:1002100008601C494FF0010008601E484FF47F0140
:10022000D0F8002041EA0201016019484FF08051E6
:10023000016019480068006800BF80F3088861B653
:1002400062B6704700BFEFF308801EF0040F01D0C4
:10025000EFF3098020E9F00F40F804ED1EF0040FE1
:1002600002D080F3098801E080F3088800B504F02B
:10027000C3FB5DF804EB4EF0040E7047EFF305800E
:10028000704700002C0A0020280A0020240A0020C1
:1002900004ED00E020ED00E008ED00E0844641EAD6
:1002A000000313F0030349D1403A23D30B680360E2
:1002B0004B6843608B688360CB68C3600B690361E4
:1002C0004B6943618B698361CB69C3610B6A0362CC
:1002D0004B6A43628B6A8362CB6AC3620B6B0363B4
:1002E0004B6B43638B6B8363CB6BC3634030403199
:1002F000403ADBD230320BD30B6803604B6843606B
:100300008B688360CB68C36010301031103AF3D231
:100310000C3205D351F8043B40F8043B043AF9D2BF
:10032000043208D0D2071CBF11F8013B00F8013B92
:1003300001D30B8803806046704700BF082A13D39F
:100340008B07B1D010F00303AED0C3F10403D21A6F
:10035000DB071CBF11F8013B00F8013BA4D331F8C7
:10036000023B20F8023B9FE7043AD9D3013A11F847
:10037000013B00F8013BF9D20B7803704B784370D6
:100380008B7883706046704780B400AF00BFBD4675
:1003900080BC704780B400AFFEE780B400AFFEE7DA
:1003A00080B400AFFEE780B400AF00BFBD4680BCA4
:1003B000704780B400AF00BFBD4680BC70470000EE
:1003C00080B582B000AF786001210A4800F0F4FBEC
:1003D0000346002B04D00121064800F0DEFB03E0B9
:1003E0000121044800F0CAFB4FF47A7003F04EFD7F
:1003F000EAE700BF0008014080B584B000AF786034
:100400000023FB6002210A4800F0D6FB0346002BC4
:1004100004D00221064800F0C0FB03E0022104489A
:1004200000F0ACFB4FF4FA7003F030FDEAE700BFD8
:100430000008014080B586B004AF4FF4C06000F002
:10044000E1FB40F2026000F0DDFB40F2046000F0EE
:10045000D9FB4FF4E06000F0C3FB0123012210211F
:100460001C4800F0E5FA022301221021194800F08F
:10047000DFFA0121184800F081FB0A2303931E23B1
:1004800002934FF400730193144B00930023144A1A
:100490001449154803F0B6FB78607B68002B02D145
:1004A000114803F0EFFB192301931E2300934FF42F
:1004B000007300220D490E4803F034FC38603B689D
:1004C000002B02D0386803F0DDFB4FF47A7003F0A4
:1004D000DDFCFAE700080140001001403003002075
:1004E000C1030008B8740008B0020020F903000836
:1004F000C074000880B483B000AF78607B68013BB3
:10050000B3F1807F01D301230DE0094A7B68013BF1
:100510001360084BFF221A70074B00221A60074B2A
:1005200007221A60002318460C37BD4680BC70476E
:1005300014E000E023ED00E018E000E010E000E04F
:1005400080B500AF0D4B4FF000629A6000F05AFE8C
:100550000B4B1B680B4AA2FB03239B091846FFF7B2
:10056000C9FF00F0D7FF00F015FA074802F082FA41
:100570000649074802F094FB00BF80BD00ED00E093
:1005800000000020D34D6210C87400080000012054
:10059000340A002080B500AF01F0E0FC00F040FF1D
:1005A00001F0FCFC00BF80BD80B483B000AF034607
:1005B000FB71084997F907305B09FA7902F01F02CD
:1005C000012000FA02F241F8232000BF0C37BD469B
:1005D00080BC704700E100E080B483B000AF034608
:1005E000FB71094997F907305B09FA7902F01F029C
:1005F000012000FA02F2203341F8232000BF0C371B
:10060000BD4680BC704700BF00E100E080B483B00D
:1006100000AF03463960FB7197F90730002B0BDA06
:100620000D49FB7903F00F03043B3A68D2B2120183
:10063000D2B20B441A7609E0084997F907303A68B4
:10064000D2B21201D2B20B4483F8002300BF0C37A0
:10065000BD4680BC704700BF00ED00E000E100E057
:1006600080B500AF01F07AFC034800F05DF901F0BD
:1006700095FC00BF80BD00BFA808002080B582B0F7
:1006800000AF78607B681B89184600F0BBFA7B6876
:100690005B89184600F0B6FA7B68DB88184600F0E4
:1006A000B1FA7B68D8687B681B8A0322182100F0A6
:1006B000BFF97B6858697B681B8B0322042100F01B
:1006C000B7F97B6893F9043000211846FFF79EFFC5
:1006D0007B6893F904301846FFF766FF00BF0837C0
:1006E000BD4680BD80B584B000AF786039607B685E
:1006F000002B04D1E7223E493E4802F02BFA3B682A
:10070000002B04D1E8223A493B4802F023FA7B68E7
:10071000DB6BFB60F868FFF7B1FFFB681A683B68AA
:100720001B681946104600F059FB3B681B79C3F360
:100730000303DBB2092B07D1FB681B684FF4805120
:10074000184600F0C9FB06E0FB681B68002118464C
:1007500000F0C2FB00BF3B681B79C3F30113DBB29F
:10076000012B07D1FB681B684FF40051184600F0BD
:10077000CFFB06E0FB681B680021184600F0C8FBB1
:1007800000BF3B681B79C3F38113DBB2012B02D09E
:10079000022B08D00FE0FB681B684FF4C0611846BD
:1007A00000F07EFB0EE0FB681B684FF4806118468A
:1007B00000F076FB06E0FB681B680021184600F09D
:1007C0006FFB00BFFB681B680421184600F0EBFBC1
:1007D000FB681B680821184600F0C8FBFB681B6813
:1007E000184600F0B1FB002318461037BD4680BD07
:1007F000308E0008D8740008EC74000880B586B00C
:1008000000AFF860B9607A60FB68002B05D140F258
:100810001F121649164802F09DF9FB68DB6B7B61DD
:10082000BB68102B0FD0112B1BD17B6993F90430BF
:100830001846FFF7D1FE7B691B6840F20531184668
:1008400000F049FC0DE07B6993F904301846FFF78E
:10085000ABFE7B691B6840F20531184600F01BFCBB
:1008600000BF002318461837BD4680BD408E0008E3
:10087000D874000880B584B000AF78600B46FB7078
:100880007B68002B05D14FF49D720E490E4802F093
:1008900061F97B68DB6BFB60FB681B68FA781146CB
:1008A000184600F09DFB00BFFB681B680621184638
:1008B00000F0B7FB0346002BF6D001231846103793
:1008C000BD4680BD508E0008D874000880B584B045
:1008D00000AF78607B68002B05D14FF4A4721049FB
:1008E000104802F037F97B68DB6BBB604FF0FF33D9
:1008F000FB60BB681B680521184600F092FB0346AD
:10090000002B07D0BB681B68184600F07AFB034633
:10091000DBB2FB60FB6818461037BD4680BD00BFE8
:100920005C8E0008D874000880B584B000AF786091
:100930007B68DB6BFB60FB68002B05D14FF4AE726C
:100940001149124802F006F9FB681B681049184665
:1009500000F0E2FB0346002B12D0FB681B68052168
:10096000184600F05EFB0346002B09D00121786891
:1009700004F072FDFB681B680521184600F06DFB52
:1009800000BF1037BD4680BD688E0008FC740008AB
:100990000503050080B584B000AF214A3B1D92E8F5
:1009A000030083E803000023FB6031E01D49FA687F
:1009B0001346DB0013449B000B441C331B681A4A8C
:1009C0001A641849FA681346DB0013449B000B4471
:1009D0001C331B6844333A1D92E8030083E803008C
:1009E0001049FA681346DB0013449B000B441C3388
:1009F00018680E49FA681346DB0013449B00094A45
:100A0000134440F2031204F0D9FCFB680133FB608D
:100A1000FB68002BCAD0002318461037BD4680BDA6
:100A20000C750008F88D00081C8E0008D0740008B2
:100A300080B489B000AFF860B9607A603B60002391
:100A4000BB6100237B61BB6803F00F03BB61BB6824
:100A500003F01003002B03D0BA697B681343BB611A
:100A60000023FB8339E0FB8B01229A403B68134053
:100A7000002B2FD0FB681B687B61FB8B9B000F2238
:100A800002FA03F3DB437A6913407B61FB8B9B0023
:100A9000BA6902FA03F37A6913437B61BB68282BB6
:100AA00009D1FB6814331946FB8B01229A403B683D
:100AB00013400B600BE0BB68482B08D1FB68103378
:100AC0001946FB8B01229A403B6813400B60FB6880
:100AD0007A691A60FB8B0133FB83FB8B072BC2D92E
:100AE0000823FB8342E0FB8B01229A403B681340C2
:100AF000002B38D0FB6804331B687B61FB8B03F150
:100B00008043083B9B000F2202FA03F3DB437A6920
:100B100013407B61FB8B03F18043083B9B00BA6968
:100B200002FA03F37A6913437B61BB68282B09D16E
:100B3000FB6814331946FB8B01229A403B68134033
:100B40000B600BE0BB68482B08D1FB6810331946DB
:100B5000FB8B01229A403B6813400B60FB68043317
:100B60001A467B691360FB8B0133FB83FB8B0F2BD6
:100B7000B9D900BF2437BD4680BC704780B483B06C
:100B800000AF786039607B6810331A463B681360A9
:100B900000BF0C37BD4680BC704780B483B000AF47
:100BA000786039607B6814331A463B68136000BF75
:100BB0000C37BD4680BC704780B483B000AF78600E
:100BC00039607B680C331A683B681340002B01D0F6
:100BD000012300E0002318460C37BD4680BC704757
:100BE00080B483B000AF7860054A7B6843F0BF6390
:100BF00043F40033D36000BF0C37BD4680BC704760
:100C000000ED00E080B483B000AF0346FB80FB88BA
:100C10009B099BB203F1804303F504331846FB881C
:100C20009B099BB203F1804303F504331A68FB88E8
:100C300003F01F03012101FA03F31343036000BF14
:100C40000C37BD4680BC704790B496B000AF0346E9
:100C5000FB7100237B655C4B07F118041868596829
:100C60009A68DB680FC4594A07F11003106851688D
:100C700003C3564A07F108031068516803C3544B75
:100C80001B689B0803F003037B647B6C012B07D07C
:100C9000012B02D3022B06D03EE04E4B3B653EE0DB
:100CA0004C4B3B653BE04A4B1B6803F480333B6491
:100CB0003B6CB3F5803F0DD1464BBB64444B1B6886
:100CC00003F40033FB63FB6BB3F5003F04D1424BED
:100CD000BB6401E0404BBB643D4B1B689B0C03F0C5
:100CE0000F03FB643A4B1B6803F00063002B03D037
:100CF000FB6C43F01003FB64FB6C0E2B03D8FB6C06
:100D00000233FB6402E0FB6C0133FB64BB6CFA6CE6
:100D100002FB03F33B6502E02E4B3B6500BF2C4B0F
:100D20001B681B0903F00F03BB6307F11802BB6BC1
:100D300013441B787B633A6D7B6B22FA03F33B63AE
:100D4000234B1B681B0A03F00703BB6307F1100268
:100D5000BB6B13441B787B633A6B7B6B22FA03F308
:100D6000FB621B4B1B68DB0A03F00703BB6307F145
:100D70000802BB6B13441B787B633A6B7B6B22FAD4
:100D800003F3BB62FB79032B16D801A252F823F0C0
:100D9000A10D0008A70D0008AD0D0008B30D000857
:100DA0003B6D7B6509E03B6B7B6506E0FB6A7B6521
:100DB00003E0BB6A7B6500E000BF7B6D18465837D7
:100DC000BD4690BC704700BF14750008247500082C
:100DD0000410024000127A0000093D0080B586B080
:100DE00000AF7860396000237B6100233B61002302
:100DF000FB600023BB607B68244A93421FD0234AD8
:100E0000934206D8224A93420FD0224A934211D0ED
:100E10001FE0214A934217D0204A934200D018E0A5
:100E20000320FFF711FF786113E00220FFF70CFFAA
:100E300078610EE00220FFF707FF786109E00220E9
:100E4000FFF702FF786104E00220FFF7FDFE786102
:100E500000BF3B685A087B691A443B68B2FBF3F356
:100E6000BB60BA684FF6F07313403B61BB6803F098
:100E70000F03FB607B68083319463A69FB6813432C
:100E80009BB20B6000BF1837BD4680BD004C0040D0
:100E9000004400400048004000500040003801403D
:100EA00080B483B000AF786039607B680C331A4639
:100EB0007B680C331B6823F4C06313607B680C33BE
:100EC00019467B680C331A683B6813430B6000BFFC
:100ED0000C37BD4680BC704780B483B000AF7860EB
:100EE00039607B680C331A467B680C331B6823F42B
:100EF000805313607B680C3319467B680C331A6887
:100F00003B6813430B6000BF0C37BD4680BC704785
:100F100080B483B000AF786039607B6810331A46C4
:100F20007B6810331B6823F4405313607B681033D5
:100F300019467B6810331A683B6813430B6000BF87
:100F40000C37BD4680BC704780B483B000AF78607A
:100F50007B680C331A467B680C331B6843F40053E0
:100F6000136000BF0C37BD4680BC704780B485B0AD
:100F700000AF786039600023FB607B680C331B682E
:100F8000FB60FB6823F00803FB60FA683B681343CF
:100F9000FB607B680C331A46FB68136000BF143794
:100FA000BD4680BC704780B485B000AF78603960C2
:100FB0000023FB607B680C331B68FB60FB6823F03D
:100FC0000403FB60FA683B681343FB607B680C33E7
:100FD0001A46FB68136000BF1437BD4680BC7047DB
:100FE00080B483B000AF786039607B6804331A4600
:100FF0003B68C3F30803136000BF0C37BD4680BCD9
:10100000704780B483B000AF78607B6804331B689E
:101010009BB2C3F308039BB218460C37BD4680BC95
:10102000704780B483B000AF78600B46FB70FB78EC
:101030009A097B6813441A68FB7803F01F0322FAAD
:1010400003F303F00103002B01D0012300E0002390
:1010500018460C37BD4680BC704780B483B000AFE3
:1010600078600B46FB70FB789A097B68134418463E
:10107000FB789A097B6813441A68FB7803F01F0316
:10108000012101FA03F3DB431340036000BF0C3777
:10109000BD4680BC704780B483B000AF78603960D3
:1010A0003B689B09C3F309027B68134418463B68FD
:1010B0009B09C3F309027B6813441A683B6803F079
:1010C0001F03012101FA03F31343036000BF0C3730
:1010D000BD4680BC704780B483B000AF7860396093
:1010E0003B689B09C3F309027B68134418463B68BD
:1010F0009B09C3F309027B6813441A683B6803F039
:101100001F03012101FA03F3DB431340036000BF17
:101110000C37BD4680BC704780B485B000AF7860A6
:1011200039600023FB600023BB603B689B09C3F36D
:1011300009027B6813441A683B6803F01F0301210E
:1011400001FA03F31340FB603B689A0D7B6813447C
:101150001A683B681B0C03F01F03012101FA03F31B
:101160001340BB60BB68002B04D0FB68002B01D090
:10117000012300E0002318461437BD4680BC7047A9
:1011800080B500AF00F0A2F800BF80BD80B500AF11
:10119000184A184B1B6843F0010313601649164B9D
:1011A0001A68164B13400B60124A124B1B6823F04F
:1011B000847323F4803313600E4A0E4B1B6823F4B0
:1011C000802313600C4A0C4B1B6823F00F6323F43D
:1011D00070231360074A074B1B6823F0847323F4C2
:1011E00080331360064B4FF41F021A60FFF7C8FFED
:1011F00000BF80BD00100240041002400C00FFE858
:101200000810024080B487B000AF2C4B1B689B08CD
:1012100003F00303FB60FB68012B08D0012B02D312
:10122000022B08D040E0264B264A1A6040E0244BAF
:10123000244A1A603CE0214B1B6803F48033BB60F6
:10124000BB68002B02D1204B3B610CE01D4B3B6186
:101250001A4B1B6803F400337B607B68B3F5003FD7
:1012600001D1194B3B61154B1B689B0C03F00F031D
:101270007B61124B1B6803F00063002B03D07B697A
:1012800043F010037B617B690E2B03D97B6901332B
:101290007B6102E07B6902337B613B697A6902FB17
:1012A00003F3074A136003E0054B064A1A6000BFC8
:1012B00000BF1C37BD4680BC704700BF0410024011
:1012C0000000002000127A0000093D0080B483B0C5
:1012D00000AF00237B6000233B60364A354B1B6820
:1012E00043F4803313607B6801337B60314B1B68B0
:1012F00003F400333B603B68002B04D17B684FF65E
:10130000FF729342EFD12B4B1B6803F40033002B89
:1013100000D1FEE7284A284B1B681360264A264B5B
:101320001B681360244A244B1B6843F480631360DA
:10133000214A214B1B6823F4403313601E4A1E4B85
:101340001B6843F4403313601B4A1B4B1B6823F09C
:10135000036323F440231360174A174B1B6843F0C1
:10136000026343F400231360124A124B1B6843F0DC
:101370008073136000BF0F4B1B6803F00073002BDA
:10138000F9D00D4A0C4B1B6823F0030313600A4A83
:10139000094B1B6843F00203136000BF064B1B6838
:1013A00003F00803002BF9D000BF0C37BD4680BC0A
:1013B000704700BF0010024004100240002103E00B
:1013C0000A4B5B584350043109480A4B42189A4271
:1013D000F6D3094A02E0002342F8043B074B9A4245
:1013E000F9D307488047074800470000E098000805
:1013F000000000209400002094020020340A002005
:101400008D11000875150008FEE7000080B400AFDC
:10141000024B1B681846BD4680BC70473005002053
:1014200080B582B000AF0E4B1B6801330C4A1360CD
:1014300002F01EFC78607B689B6C5A1E7B689A6485
:101440007B689B6C002B05D17B685A6C7B689A6427
:1014500002F09AFC03F0A8F800BF0837BD4680BD33
:101460003005002080B485B000AF78607B68002B29
:1014700003DA4FF0FF33FB6027E07B68164A82FBFC
:1014800003129211DB17D31A4FF47A7202FB03F3A3
:10149000FB607A68104B83FB02139911D317CB1AA8
:1014A0004FF47A7101FB03F3D31A4FF47A7202FB03
:1014B00003F303F2E733084A82FB03129211DB17AE
:1014C000D31A1A46FB681344FB60FB6818461437AE
:1014D000BD4680BC704700BFD34D621080B400AFE2
:1014E00000231846BD4680BC704780B400AF00237F
:1014F0001846BD4680BC704780B400AF0023184634
:10150000BD4680BC704780B400AF00231846BD467E
:1015100080BC704780B582B000AF084B7B6005E0AF
:101520007B681B6898477B6804337B607B68044A50
:101530009342F5D300BF0837BD4680BDBC98000874
:10154000C498000880B582B000AF084B7B6005E00E
:101550007B681B6898477B6804337B607B68044A20
:101560009342F5D300BF0837BD4680BDC49800083C
:10157000D098000880B500AF00F036F80023184678
:1015800080BD80B582B000AF7860FFF7DBFFFEF76B
:1015900051FF00BF0837BD4680BD000080B584B054
:1015A00002AF142301930A2300934FF40063002237
:1015B00009490A4802F0B6FB78607B68002B04D129
:1015C000C4220749074801F0C5FA786802F05AFBBF
:1015D00000BF0837BD4680BD831500082C75000884
:1015E000748E00083475000880B500AFFEF7D6FD94
:1015F000FEF7A6FF00F02CFE03F03CF802F094F892
:10160000FFF7CCFF03F050F800F0B6FA02F0B6F89E
:101610000023184680BD80B584B000AFF860B96083
:101620001346FB80FB68002B02D14FF0FF3318E01C
:10163000B86800F01BF80346002B02D04FF0FF33D0
:101640000FE0FB68BA680921184601F059FEFB68F3
:10165000FA88DA82FB6800229A76FB6800221A83F5
:10166000002318461037BD4680BD000080B586B007
:1016700000AF786002F0FCFA0346002B01D002F0C4
:1016800075F9092001F018FE38613B69002B04D17F
:101690007C221849184801F05DFA3B695B687B6160
:1016A00017E07B690C3BFB60FB68082279681846F1
:1016B00000F093FD0346002B08D102F0D9FA03464F
:1016C000002B01D002F068F9FB680FE07B691B6812
:1016D0007B613B691A1D7B699A42E2D102F0C8FA2C
:1016E0000346002B01D002F057F9002318461837A3
:1016F000BD4680BD888E0008B875000880B584B0EE
:1017000000AF78600B467B800023FB607B68002B7A
:1017100004D1F4223B493C4801F01CFA7B6818468E
:1017200001F048FF0346092B04D0F522354937481C
:1017300001F010FA7B68DB8A03F01003002B1AD14A
:101740007B685B6A002B0FD07B685B6A7868984780
:10175000F860FB68002B07D07B68FA6819462C48B4
:1017600001F0B8F9FB6848E07B68DB8A43F01003BE
:101770009AB27B68DA827B68DB8A03F00803002B6D
:1017800008D07B681B8B03F00803002B02D06FF09E
:10179000060332E07B689B6A002B07D07B689B6A5C
:1017A0007A88114678689847F86007E07B8823F0CC
:1017B000F0031B051B0D9AB27B681A83FB68002B94
:1017C00003D0FB6813F1060F16D17B681B8B43F027
:1017D00008039AB27B681A837B689B7E0133DAB276
:1017E0007B689A767B689B7E002B05D140F22312A2
:1017F0000449084801F0AEF9FB6818461037BD46A9
:1018000080BD00BF988E000844750008547500081C
:10181000047600083C76000880B584B000AF78609C
:101820000023FB607B68002B05D140F235121E4976
:101830001E4801F08FF97B68184601F0BBFE034695
:10184000092B05D04FF49B721749194801F082F912
:101850007B689B7E002B02D14FF0FF331FE07B683B
:101860009B7E013BDAB27B689A767B689B7E002B7D
:1018700001D0002313E07B68DB6A002B04D07B6877
:10188000DB6A78689847F860FB68002B03D0FB6838
:1018900013F1060F02D17B6800221A83FB681846F9
:1018A0001037BD4680BD00BFA88E000844750008F3
:1018B0005475000890B585B000AFF860B9607A60E3
:1018C0003B60FB68002B05D140F25F1218491948B4
:1018D00001F040F9FB68184601F06CFE0346092B45
:1018E00005D04FF4B0721249134801F033F9FB6888
:1018F0009B7E002B05D14FF0FF3000F083FB0023CF
:1019000011E0FB681B6B002B08D0FB681C6B3B686D
:101910007A68B968F868A047034604E06FF00500EC
:1019200000F070FB002318461437BD4690BD00BF81
:10193000B88E0008447500085475000890B585B04D
:1019400000AFF860B9607A603B60FB68002B05D19E
:101950004FF4C3721849194801F0FCF8FB681846A7
:1019600001F028FE0346092B05D040F287121249E8
:10197000134801F0EFF8FB689B7E002B05D14FF078
:10198000FF3000F03FFB002311E0FB685B6B002B96
:1019900008D0FB685C6B3B687A68B968F868A04758
:1019A000034604E06FF0050000F02CFB002318460E
:1019B0001437BD4690BD00BFC88E000844750008AE
:1019C0005475000880B582B000AF786039607B68DC
:1019D000002B05D140F2C1120C490D4801F0BAF8B4
:1019E0007B68184601F0E6FD0346092B05D04FF44D
:1019F000E1720649074801F0ADF87B683A68DA61A0
:101A0000002318460837BD4680BD00BFD88E0008A9
:101A1000447500085475000880B483B000AF786046
:101A20007B681B687A6852685A607B685B687A6872
:101A300012681A607B687A685A607B685A687B68AB
:101A40001A6000BF0C37BD4680BC704780B483B0BD
:101A500000AF074B7B607B681A687B689A4214BFB3
:101A600001230023DBB218460C37BD4680BC70470B
:101A70001C0A002080B584B000AF4FE0FEF78EFB5B
:101A8000F86000F0ABFA0346002B08D0274928483D
:101A900001F020F898222549264801F05BF8F86803
:101AA000FEF780FBFEF77AFBB860FFF7CFFF034637
:101AB000002B24D0204B1B68143B7B607B681433C5
:101AC0001846FFF7A9FF01F051FF7B689B6F002BC1
:101AD00003D07B689B6F78689847786801F04CFD6D
:101AE0000346012B08D1786801F06EFC01F054FF29
:101AF000B868FEF757FB16E001F04EFF03E0B86848
:101B0000FEF750FB0FE0B868FEF74CFB7B689B6A62
:101B1000184601F0B9FA786801F0F0FCFFF796FF7B
:101B20000346002BAAD11037BD4680BDF48E0008B5
:101B300050760008787600081C0A002080B584B032
:101B400000AF78600023FB600DE00A4AFB6852F8A2
:101B50002330002B04D0074AFB6852F82330984703
:101B6000FB680133FB60FB68032BEED9FFF782FFB4
:101B7000E8E700BFB406002080B584B004AF20239E
:101B800003931F2302934FF480730193064B00933A
:101B90000023064A0649074802F034F8054802F0D7
:101BA00071F800BFBD4680BDB40500203D1B000894
:101BB0007C7600083405002080B483B000AF7860E4
:101BC0007B687A685A607B685A687B681A6000BFD5
:101BD0000C37BD4680BC704780B483B000AF7860DE
:101BE00039607B685B683A681A607B685A683B6852
:101BF0005A607B683A685A603B687A681A6000BF2E
:101C00000C37BD4680BC704780B483B000AF7860AD
:101C10007B681A687B689A420CBF01230023DBB201
:101C200018460C37BD4680BC704780B582B000AF07
:101C300078607B6814331846FFF7BEFF0023184610
:101C40000837BD4680BD80B586B000AFF860B9608A
:101C50001346FB71B86802F029F9FB79002B02D01A
:101C6000012B07D031E0BB6814331946F868FFF741
:101C7000B3FF2AE0FB681B687B6117E07B69143BBC
:101C80003B61BB6893F835203B6993F835309A4245
:101C900009D23B6903F11402BB681433194610469C
:101CA000FFF79AFF06E07B691B687B617A69FB6836
:101CB0009A42E3D17A69FB689A4205D1BB68143332
:101CC0001946F868FFF788FF00BF00231846183749
:101CD000BD4680BD80B584B000AF78607B681B686E
:101CE000143BFB60F86802F035F900231846103702
:101CF000BD4680BD80B584B000AFF860B9607A6041
:101D0000FB70FB68002B04D1CC221149114800F074
:101D100021FF7B68B3F5803F04D3CD220C490E48E8
:101D200000F018FFFB68BA680221184601F0E8FAD3
:101D3000FB681846FFF779FF7B689AB2FB689A83C5
:101D4000FB68FA785A72002318461037BD4680BDEA
:101D50000C8F0008847600089476000890B587B050
:101D600000AF786039607B68002B05D14FF4A57215
:101D70004A494B4800F0EEFE7B68184601F01AFC19
:101D80000346022B05D040F24B124449454800F06F
:101D9000E1FE454B1B68002B04D0434B1B687A685F
:101DA00010469847FEF7FAF904467B689B8B002B98
:101DB00009D07B689B8B013B9AB27B689A83204653
:101DC000FEF7F0F95CE03B68002B05D12046FEF7FA
:101DD000E9F96FF001035DE0FEF7E0F9786101F0E9
:101DE00047FF0346002B09D12C49304800F072FE12
:101DF00040F26B1229492E4800F0ACFEFEF7CEF9F6
:101E0000386100F0EBF80346002B09D0234929483C
:101E100000F060FE40F26B122049254800F09AFE67
:101E20003869FEF7BFF97869FEF7BCF901F020FFC9
:101E3000F860FB6800221A637B6803F114007B687A
:101E40005B7A1A46F968FFF7FEFE3B68002B0BDD54
:101E5000FB684C333A460021184602F055FBFB68FC
:101E60004C33184602F008FA2046FEF79BF901F0C1
:101E7000A3FCFB681B6B002B02D0FB681B6B09E00B
:101E80000D4B1B68002B04D00B4B1B687A68104667
:101E90009847002318461C37BD4690BD188F000890
:101EA00084760008A87600080C09002088770008CE
:101EB000487700082077000808090020B0B582B0F4
:101EC00000AF78607B68002B05D140F2B7121F4944
:101ED0001F4800F03FFE7B68184601F06BFB03468D
:101EE000022B05D04FF4DC7218491A4800F032FE7C
:101EF000194B1B68002B04D0174B1B687A681046DF
:101F000098470024FEF74AF905467B6814331846C3
:101F1000FFF77AFE0346002B06D17B681433184680
:101F2000FFF7D8FE012405E07B689B8B01339AB252
:101F30007B689A832846FEF735F9012C01D101F020
:101F40003BFC002318460837BD46B0BD248F00086F
:101F500084760008A87600080409002080B582B0C5
:101F600000AFFEF71BF978600A4B1B78DBB2013338
:101F7000DAB2084B1A70084B1B68002B02D0064BD4
:101F80001B6898477868FEF70DF900BF0837BD4613
:101F900080BD00BFFC080020C406002080B582B0D0
:101FA00000AFFEF7FBF878600A4B1B78DBB2013B11
:101FB000DAB2084B1A70084B1B68002B02D0064B94
:101FC0001B6898477868FEF7EDF800BF0837BD46F4
:101FD00080BD00BFFC080020C806002080B582B08C
:101FE00000AFFEF7DBF87860054B1B78FB70786874
:101FF000FEF7D8F8FB7818460837BD4680BD00BF0D
:10200000FC08002080B584B000AF7860FFF7E6FFE1
:102010000346002B03D00A4A7B6813600CE001F0F2
:1020200027FEF860FB68002B03D1054A7B6813602C
:1020300002E0FB687A681A631037BD4680BD00BFB6
:10204000CC06002080B489B000AFF860B9607A6037
:10205000FB68FB61BB68DBB27B617B68032B40D90B
:10206000FB6803F00303002B3BD1FB68BB617B697A
:102070001A027B6913433B613B691B043A691343B2
:102080003B6116E0BB691A1DBA613A691A60BB6907
:102090001A1DBA613A691A60BB691A1DBA613A69B8
:1020A0001A60BB691A1DBA613A691A607B68103BF5
:1020B0007B607B680F2BE5D807E0BB691A1DBA610E
:1020C0003A691A607B68043B7B607B68032BF4D819
:1020D000BB69FB6105E0FB695A1CFA617A69D2B2FF
:1020E0001A707B685A1E7A60002BF4D1FB68184680
:1020F0002437BD4680BC704780B487B000AFF8601D
:10210000B9607A60FB687B61BB683B613A697B6957
:102110009A4226D23A697B681A447B699A4220D94E
:102120007A697B6813447B613A697B6813443B613D
:1021300009E07B69013B7B613B69013B3B613B699A
:102140001A787B691A707B685A1E7A60002BF0D16E
:102150000CE07B695A1C7A613A69511C396112782A
:102160001A707B685A1E7A60002BF2D1FB68184601
:102170001C37BD4680BC704780B487B000AFF860A4
:10218000B9607A607B68002B21D0FB687B61BB68FB
:102190003B617B695A1C7A613A69511C396112783A
:1021A0001A701B78002B0CD104E07B695A1C7A61F1
:1021B00000221A707B68013B7B607B68002BF4D1A6
:1021C00005E07B68013B7B607B68002BE1D1FB680D
:1021D00018461C37BD4680BC704790B484B000AF31
:1021E000F860B9607A60002413E0FB681A78BB6875
:1021F000591CB9601B78D31ADBB25CB2002C0BD12E
:10220000FB685A1CFA601B78002B05D07B68013BE9
:102210007B607B68002BE8D1234618461037BD460B
:1022200090BC704780B485B000AF78607B68FB607D
:1022300002E0FB680133FB60FB681B78002BF8D1E0
:10224000FA687B68D31A18461437BD4680BC7047BD
:1022500080B582B002AF0A4800F03CFC094800F0AB
:1022600039FC094B0093042301220321074800F0A5
:1022700031FC074800F02EFC00BFBD4680BD00BF0A
:10228000FC7A0008087B00084C7B00082C7B0008C7
:10229000587B000880B485B000AF786039603B6837
:1022A0000A2B17D17B681B681946134BA3FB01232C
:1022B000DA0813469B0013445B00CA1AFA607B6875
:1022C0001B681A460C4BA3FB0223DB081A467B68EB
:1022D0001A600AE07B681B6803F00F03FB607B68F1
:1022E0001B681B091A467B681A60FB68184614377E
:1022F000BD4680BC704700BFCDCCCCCC90B482B082
:1023000000AF786000240DE023469B0023445B006F
:1023100018467B681B68591C7A6811601B78034457
:10232000A3F130047B681B681B78303B092BEBD989
:10233000234618460837BD4690BC7047F0B58DB0AF
:1023400000AFF860B9607A603B60FB6CBB62BC6C4C
:102350003B6D03F04003002B01D06D4B00E06D4B53
:102360007B623B6D03F01003002B03D03B6D23F029
:1023700001033B653B6D03F00103002B01D03023CB
:1023800000E0202387F82330002387F82F303B6DAF
:1023900003F00203002B1AD07B68002B06DA2D23F2
:1023A00087F82F307B685B427B6010E03B6D03F069
:1023B0000403002B03D02B2387F82F3007E03B6D5D
:1023C00003F00803002B02D0202387F82F300025CC
:1023D0007B68002B19D12B465D1C07F1300213449A
:1023E000302203F8202C13E02E46751C3B1D396863
:1023F0001846FFF74FFF03461A467B6A13441A78C4
:1024000007F13003334403F8202C7B68002BEBD119
:10241000FB6C9D4200DDFD64FB6CE41A3B6D03F038
:102420001103002B15D197F82F30002B0DD0002C65
:102430000BDD013C09E0FA68BB689A4202D2FB68F6
:1024400020221A70FB680133FB6023465C1E002BC0
:10245000F1DC97F82F30002B0BD0FA68BB689A425A
:1024600003D2FB6897F82F201A70013CFB680133F8
:10247000FB603B6D03F01003002B1AD10AE0FA68F1
:10248000BB689A4203D2FB6897F823201A70FB6856
:102490000133FB6023465C1E002BF0DC09E0FA6888
:1024A000BB689A4202D2FB6830221A70FB68013383
:1024B000FB60FB6C5A1EFA64AB42F0DC0DE0FA687C
:1024C000BB689A4206D207F130032B4413F8202C44
:1024D000FB681A70FB680133FB602B465D1E002B06
:1024E0000DDDBB6A002BEAD109E0FA68BB689A42AD
:1024F00002D2FB6820221A70FB680133FB6023467E
:102500005C1E002BF1DCFB6818463437BD46F0BD7D
:10251000348F0008488F000880B592B004AFF8608F
:10252000B9607A603B60FB68BB62FA68BB681344C1
:102530007B627A6AFB689A4280F075824FF0FF33C3
:102540007B627A6AFB68D31ABB606CE27B681B789B
:10255000252B0BD0BA6A7B6A9A4203D27B681A7821
:10256000BB6A1A70BB6A0133BB6259E20023BB77B6
:102570007B6801337B607B681B782D2B04D1BB7F8C
:1025800043F01003BB77F3E77B681B782B2B04D158
:10259000BB7F43F00403BB77EAE77B681B78202B03
:1025A00004D1BB7F43F00803BB77E1E77B681B786E
:1025B000232B04D1BB7F43F02003BB77D8E77B6894
:1025C0001B78302B04D1BB7F43F00103BB77CFE7EF
:1025D00000BF4FF0FF33BB617B681B78303B092B9A
:1025E00005D83B1D1846FFF789FEB86115E07B68EA
:1025F0001B782A2B11D17B6801337B603B681A1D45
:102600003A601B68BB61BB69002B06DABB695B42A1
:10261000BB61BB7F43F01003BB774FF0FF337B619F
:102620007B681B782E2B1ED17B6801337B607B6817
:102630001B78303B092B05D83B1D1846FFF75EFE83
:1026400078610BE07B681B782A2B07D17B6801330C
:102650007B603B681A1D3A601B687B617B69002BBD
:1026600001DA00237B6100237B777B681B78682B72
:1026700003D07B681B786C2B05D17B681B787B773C
:102680007B6801337B600A23FB777B681B78253BE3
:10269000532B00F2708101A252F823F04329000865
:1026A000772900087729000877290008772900088A
:1026B000772900087729000877290008772900087A
:1026C000772900087729000877290008772900086A
:1026D000772900087729000877290008772900085A
:1026E000772900087729000877290008772900084A
:1026F000772900087729000877290008772900083A
:102700007729000877290008772900087729000829
:102710007729000877290008772900087729000819
:102720007729000877290008772900087729000809
:1027300077290008772900087729000877290008F9
:1027400077290008772900087729000877290008E9
:1027500077290008772900087729000877290008D9
:1027600077290008772900085F29000877290008E1
:1027700077290008772900087729000877290008B9
:1027800077290008772900087729000877290008A9
:1027900077290008ED2700086D290008772900082F
:1027A0007729000877290008772900086D29000893
:1027B0007729000877290008772900087729000879
:1027C00077290008592900080B29000877290008F3
:1027D000772900085B28000877290008B32900083A
:1027E000772900087729000867290008BB7F03F0D4
:1027F0001003002B10D109E0BA6A7B6A9A4202D218
:10280000BB6A20221A70BB6A0133BB62BB69013B01
:10281000BB61BB69002BEFDC3B681A1D3A601B688B
:10282000FB74BA6A7B6A9A4202D2BB6AFA7C1A705B
:10283000BB6A0133BB6209E0BA6A7B6A9A4202D280
:10284000BB6A20221A70BB6A0133BB62BB69013BC1
:10285000BB61BB69002BEFDCE2E03B681A1D3A600C
:102860001B683B623B6A002B01D17C4B3B62386AA0
:10287000FFF7D8FC0346FB627B69002B05DDFA6A93
:102880007B699A4201DD7B69FB62BB7F03F0100329
:10289000002B10D109E0BA6A7B6A9A4202D2BB6A65
:1028A00020221A70BB6A0133BB62BB695A1EBA612F
:1028B000FA6A9342EFDC00233B6310E0BA6A7B6A5A
:1028C0009A4203D23B6A1A78BB6A1A70BB6A013318
:1028D000BB623B6A01333B623B6B01333B633A6B48
:1028E000FB6A9A42EADB09E0BA6A7B6A9A4202D240
:1028F000BB6A20221A70BB6A0133BB62BB695A1ED5
:10290000BA61FA6A9342EFDC8AE0BB69B3F1FF3F38
:1029100005D10823BB61BB7F43F00103BB773B6854
:102920001A1D3A601B681A46BB7F02937B690193AC
:10293000BB6900931023796AB86AFFF7FFFCB8629D
:102940006EE0BA6A7B6A9A4202D2BB6A25221A708A
:10295000BB6A0133BB6263E00823FB772AE0BB7FDD
:1029600043F04003BB771023FB7723E0BB7F43F0AA
:102970000203BB771DE0BA6A7B6A9A4202D2BB6A45
:1029800025221A70BB6A0133BB627B681B78002B5F
:102990000BD0BA6A7B6A9A4203D27B681A78BB6A08
:1029A0001A70BB6A0133BB623AE07B68013B7B6013
:1029B00036E000BF7B7F6C2B09D13B681A1D3A6063
:1029C0001B687B63BB7F03F00203002B1AE07B7F55
:1029D000682B0ED13B681A1D3A601B689BB27B6363
:1029E000BB7F03F00203002B0CD07B6B1BB27B631D
:1029F00008E03B681A1D3A601B687B63BB7F03F0ED
:102A00000203002B7A6BF97FBB7F02937B690193F2
:102A1000BB6900930B46796AB86AFFF78FFCB8620E
:102A20007B6801337B607B681B78002B7FF48EAD65
:102A3000BB68002B0BD0BA6A7B6A9A4203D2BB6A8E
:102A400000221A7003E07B6A013B00221A70BA6A06
:102A5000FB68D31A18463837BD4680BD847B000812
:102A600080B400AF024B1B681846BD4680BC70475F
:102A7000D006002080B584B000AF78600F4B1B6893
:102A8000FB607868FEF7F2FDB860BB68002B0FD0E2
:102A90000A4B1B68002B04D0084B1B681846FEF736
:102AA000BBFE4321B868FEF729FE044ABB681360E9
:102AB000FB6818461037BD4680BD00BFD006002019
:102AC00080B483B000AF786000BF0C37BD4680BCD7
:102AD000704700000FB480B584B000AF07F11C034D
:102AE0007B607B68BA697F211848FFF715FD0346B4
:102AF000FB60FB687F2B01D97F23FB60144B1B68B5
:102B0000002B03D11148FFF7DBFF17E0104B1B68C8
:102B10001B8B7B810E4B1B680D4A1268128B42F097
:102B2000400292B21A830A4B1868FB68074A0021D8
:102B3000FEF704FF064B1B687A891A8300BF103723
:102B4000BD46BDE8804004B0704700BFD4060020F9
:102B5000D006002080B586B000AFF860B9607A601A
:102B60000023FB750C4B1B68002B0BD17B68BA68EC
:102B7000F9680A48FFF7AEFF00BFFB7DDBB2002B10
:102B8000FBD005E0044B1B687A68B968F868984781
:102B900000BF1837BD4680BD000900208C7B0008AF
:102BA00080B584B000AF7860364B1B687A689A4273
:102BB00004D2A12234493548FFF7CCFF344B1B68BF
:102BC0007A689A4204D3A2222F493248FFF7C2FF03
:102BD0007B685B88002B04D0A3222B492E48FFF78B
:102BE000B9FF284B1A687B685B681344FB607A68FE
:102BF000FB689A421ED0FB685B88002B1AD1244BDD
:102C00001B68FA689A4215D0244B1A68FB689A42EE
:102C100002D1224A7B681360FB685A687B685A605D
:102C2000184B1A68FB685B6813447A681549096891
:102C3000521A9A60134B1A687B689B681344BB60F6
:102C4000BA687B689A4219D0BB685B88002B15D1A3
:102C5000124B1A687B689A4202D1104ABB68136013
:102C60007B685A68BB685A60064B1A687B685B6869
:102C70001344BA6803490968521A9A6000BF1037B2
:102C8000BD4680BD5C070020888F0008C47B00081B
:102C900060070020E47B0008107C00086407002027
:102CA00080B586B000AF786039607B68033323F06D
:102CB00003037B613B6823F003033B61FDF76EFA7E
:102CC000F860FFF78BF90346002B08D030493148F4
:102CD000FFF700FFD2222E492F48FFF73BFFF8688D
:102CE000FDF760FA3B69182B48D93B69A3F118023C
:102CF0007B699A4242D33A697B69D31A183B274AC7
:102D000013607B69264A1360254B1B68BB60BB6858
:102D10004FF4F5521A80214B1B6803F10C02BB687B
:102D20005A60BB6800229A60BB6800225A801C4B24
:102D30001A68BB685B6813441A4A1360194B1B6816
:102D40004FF4F5521A80174B1B6801225A80154B1D
:102D50001B68124A12680C325A60124B1B680F4AE9
:102D600012680C329A60002301220F490F48FEF7C7
:102D7000C1FF0B4B1B680E4A136006E07B683A6884
:102D800019460C48FFF7A6FE00BF1837BD4680BDA8
:102D9000948F0008207C0008487C000888070020E9
:102DA0005C07002060070020887C0008680700207E
:102DB000640700204C7C000880B588B000AF7860C4
:102DC0007B68002B01D100231DE1FDF7E7F9B86115
:102DD000FFF704F90346002B09D08D498D48FFF712
:102DE00079FE4FF48C728A498B48FFF7B3FEB869BD
:102DF000FDF7D8F97B68033323F003037B60874B2F
:102E00001B687A689A4201D90023FCE07B680B2B8F
:102E100001D80C237B604FF0FF318148FEF79EFF05
:102E2000804B1B681A46804B1B68D31AFB61DEE09F
:102E30007D4B1A68FB6913447B617B695B88002BBF
:102E400040F0CF807B695A68FB69D31AA3F10C026A
:102E50007B689A42C0F0C5807B695A68FB69D31AC7
:102E6000A3F10C027B6818339A423DD3FA697B6860
:102E700013440C333B616C4B1A683B691344FB6091
:102E8000FB684FF4F5521A80FB6800225A807B6978
:102E90005A68FB685A60FB68FA699A607B693A690C
:102EA0005A607B6901225A80FB685A685B4B1B6839
:102EB0000C339A4206D05C4B1A68FB685B6813447B
:102EC0003A699A60594B1A687B6813440C33574A25
:102ED0001360574B1A68554B1B689A421DD2534BCF
:102EE0001B68534A136018E07B6901225A807B6992
:102EF0005B687A694C490968521A9A1A4B4B1B68ED
:102F000013444A4A13604A4B1A68484B1B689A425A
:102F100003D2464B1B68464A13607B694FF4F55257
:102F20001A80404B1B687A699A4224D107E03E4BD5
:102F30001A683C4B1B685B6813443A4A1360394B70
:102F40001B685B88002B05D0364B1A68394B1B6811
:102F50009A42ECD1334B1A68364B1B689A420AD01E
:102F6000304B1B685B88002B05D04FF4C172284999
:102F70003148FFF7EFFD2A48FEF7A0FF7A697B682A
:102F800013440C332B4A1268934205D94FF4C37291
:102F90001F492A48FFF7DEFD7B690C3303F003036A
:102FA000002B05D040F2871219492548FFF7D2FDC2
:102FB0007B6903F00303002B05D04FF4C47214495E
:102FC0002048FFF7C7FD204B1B68002B06D01E4B87
:102FD0001B687A690C327968104698477B690C3314
:102FE00011E0114B1A68FB6913445B68FB610B4BE2
:102FF0001A687B68D21AFB699A423FF619AF0848F3
:10300000FEF75CFF002318462037BD4680BD00BF99
:10301000A88F0008207C0008487C00088807002052
:1030200068070020640700205C0700208C07002050
:103030009007002060070020907C0008B87C000802
:10304000FC7C0008487D00085407002080B584B04F
:1030500000AF786039607B683A6802FB03F318467A
:10306000FFF7AAFEF860FB68002B08D07B683A687F
:1030700002FB03F31A460021F868FEF7E3FFFB6842
:1030800018461037BD4680BD80B584B000AF78606B
:103090007B68002B00F09780FDF780F8F860FEF762
:1030A0009DFF0346002B09D04A494B48FFF712FD0C
:1030B00040F2292247494948FFF74CFDF868FDF7DF
:1030C00071F87B6803F00303002B05D040F22B223C
:1030D00040494348FFF73EFD424B1B687A689A42DD
:1030E00004D3414B1B687A689A4205D340F22D22E3
:1030F00038493E48FFF72EFD3D4B1B68002B03D09F
:103100003B4B1B6878689847364B1B687A689A4235
:103110005BD3354B1B687A689A4256D27B680C3B6E
:10312000BB604FF0FF313348FEF718FEBB685B8889
:10313000002B04D0BB681B88B3F5F55F0BD02E487D
:10314000FFF7C8FCBB685B881A46BB681B88B96878
:103150002A48FFF7BFFCBB685B88002B05D140F213
:103160004B221C492648FFF7F5FCBB681B88B3F5CA
:10317000F55F05D04FF4137216492248FFF7EAFCB9
:10318000BB6800225A80BB684FF4F5521A801E4B70
:103190001B68BA689A4202D21B4ABB681360BB68BC
:1031A000104A12689B1A1A46BB685B68D21A174B02
:1031B0001B681344154A1360B868FFF7F1FC0D480B
:1031C000FEF77CFE02E000BF00E000BF1037BD4606
:1031D00080BD00BFB48F0008207C0008487C000838
:1031E000787D00085C07002060070020A87D0008AB
:1031F0005807002068070020047E0008207E000891
:10320000507E00085C7E0008640700208C070020C8
:1032100080B500AF094B1B6819460948FFF75AFCF7
:10322000084B1B6819460848FFF754FC074B1B68FE
:1032300019460748FFF74EFC00BF80BD88070020F5
:10324000787E00088C0700208C7E00089007002004
:10325000A07E000880B483B000AF786039607B68DE
:103260001B683A685A607B681A683B681A607B681A
:103270003A681A603B687A685A6000BF0C37BD46EE
:1032800080BC704780B483B000AF78607B681B68F7
:103290007A6852685A607B685B687A6812681A605C
:1032A0007B687A685A607B685A687B681A6000BFDE
:1032B0000C37BD4680BC704780B485B000AF034674
:1032C000FB710023FB600FE00C4AFB681B011344F9
:1032D0001B78FA799A4204D1FB681B01074A134410
:1032E00006E0FB680133FB60FB68082BECDD002384
:1032F00018461437BD4680BC704700BF040000204C
:1033000090B589B000AFF8600B467A60FB7200237D
:10331000FB61FB7A1846FFF7CFFFB861BB69002B52
:1033200004D1FB2224492548FFF714FC00F01EFBC2
:10333000BB695B68FB6112E0FB690C3B7B617B69ED
:10334000002B09D07A69FB689A4205D140F20B1232
:1033500019491B48FFF7FEFBFB691B68FB61BB6952
:103360001A1DFB699A42E7D100F016FBFB7A63F065
:103370007F03DAB2FB681A72FB6808227968184684
:10338000FEF7FAFE0F4B1B68002B03D00D4B1B689A
:10339000F8689847FCF702FF0446BB691A1DFB68F2
:1033A0000C3319461046FFF755FF2046FCF7FAFE8E
:1033B00000BF2437BD4690BDBC8F0008C07E00080A
:1033C000D87E00089407002090B583B000AF7860E5
:1033D0007B68002B05D14FF49C720F490F48FFF713
:1033E000B9FB0F4B1B68002B03D00D4B1B68786893
:1033F00098477B6800221A72FCF7D0FE04467B686F
:103400000C331846FFF73EFF2046FCF7CBFE00BF0B
:103410000C37BD4690BD00BFCC8F0008E87E000889
:103420009807002090B587B000AF03463960FB7164
:10343000FCF7B4FE7861FEF7D1FD0346002B09D0FE
:1034400029492A48FFF746FB40F25B1226492848E3
:10345000FFF780FB7869FCF7A5FEFB791846FFF7BC
:103460002BFF38613B69002B05D140F25F121E49EA
:103470002048FFF76FFB3B69DB681846FFF79CFCB1
:10348000F860FB68002B01D1002329E03B69DB6871
:103490001A460021F868FEF7D5FDFB68FA791A7222
:1034A000FB6800225A72FB68082239681846FEF74A
:1034B00063FE114B1B68002B03D00F4B1B68F86891
:1034C0009847FCF76BFE04463B691A1DFB680C33FA
:1034D00019461046FFF7BEFE2046FCF763FEFB6868
:1034E00018461C37BD4690BDE08F0008FC7E0008E2
:1034F000247F0008C07E00089407002090B583B0A8
:1035000000AF78607B68002B05D140F29912164914
:103510001648FFF71FFB7B681B7A5BB2002B05DAAE
:103520004FF4CD7210491248FFF714FB114B1B6882
:10353000002B03D00F4B1B68786898477B680022EC
:103540001A72FCF72BFE04467B680C331846FFF713
:1035500099FE2046FCF726FE7868FFF795FD00BF30
:103560000C37BD4690BD00BFF48F0008E87E000810
:10357000287F00089807002080B582B000AF7860EF
:103580007B68002B05D140F2BB1208490848FFF7C1
:10359000E1FA7B681B7A5BB2002B01DA012300E0C1
:1035A000002318460837BD4680BD00BF08900008BC
:1035B000E87E000880B582B000AF78607B68002BA1
:1035C00005D14FF4E77206490648FFF7C3FA7B6856
:1035D0001B7A03F07F03DBB218460837BD4680BD77
:1035E00024900008E87E000880B483B000AF7860C3
:1035F0007B687A685A607B685A687B681A6000BF8B
:103600000C37BD4680BC704780B483B000AF786093
:1036100039607B685B683A681A607B685A683B6807
:103620005A607B683A685A603B687A681A6000BFE3
:103630000C37BD4680BC704780B483B000AF786063
:103640007B681B687A6852685A607B685B687A6836
:1036500012681A607B687A685A607B685A687B686F
:103660001A6000BF0C37BD4680BC704780B483B081
:1036700000AF78607B681A687B689A420CBF0123B0
:103680000023DBB218460C37BD4680BC70470000F3
:1036900080B584B000AF78607B68002B04D14B22EA
:1036A0001D491E48FFF756FA7B689B6A1B78232B3F
:1036B00011D17B68DB691A467B689B6A9A420AD9FA
:1036C0007B68DB691A467B689B6A19467B68DB6A04
:1036D0000B449A420ED97B6819461148FFF7FAF954
:1036E00002F010FFFCF75AFD0346FB60FB68002B5D
:1036F000FCD10DE07B68DB691A467B689B6A20334E
:103700009A4205D87B6819460648FFF7E3F9FFE7B8
:1037100000BF1037BD4680BD38900008547F0008B8
:10372000687F0008847F000898B500AF0D4B002229
:103730001A80002406E0E3000B4A13441846FFF702
:1037400053FF01341F2CF6DD084B1F221A70084B63
:1037500000221A60074B00221A600748FFF744FF57
:1037600000BF98BD9C07002010090020100A00200F
:10377000140A0020180A00201C0A002098B500AF87
:103780000A4B1B68184601F0EBF90346013B1C4647
:10379000074B53F83430A3F11404064B1C6004F1BA
:1037A0001C031846FCF72FFD00BF98BD180A002027
:1037B00010090020140A002090B585B000AFFCF776
:1037C000EDFCF860264BB3F90030002B41D1254BBE
:1037D0001B68184601F0C4F90346013B1C46224B06
:1037E00053F83430143BBB60204B1B68BA689A42D4
:1037F0002FD0E2B21E4B1A701C4B1B687B601B4A19
:10380000BB6813601B4B1B68002B04D0194B1B6853
:10381000B96878689847B868FFF73AFF164B1B7885
:10382000DBB2002B0CD17B681C331A46BB681C33FF
:1038300019461046FCF7B9FCF868FCF7B3FC0BE03E
:103840007B681C331A46BB681C3319461046FCF7CC
:10385000ACFCF868FCF7A6FC1437BD4690BD00BF71
:103860009C070020180A002010090020140A0020DC
:10387000100A0020A0070020FC08002090B583B0AB
:1038800000AF78607B68002B05D14FF49172174927
:103890001748FFF75FF9FCF781FC04467B6893F853
:1038A00034305BB223F00F035BB243F001035BB231
:1038B000DAB27B6883F834207B6893F83530DB001C
:1038C0000C4A1A447B68143319461046FFF79CFED5
:1038D0007B689A6B084B1B681343074A13602046AA
:1038E000FCF760FC00BF0C37BD4690BD549000084B
:1038F000547F000810090020180A002090B583B0FA
:1039000000AF78607B68002B05D14FF4A872134993
:103910001348FFF71FF9FCF741FC04467B6814339A
:103920001846FFF789FE7B6893F83530DB000D4AB7
:1039300013441846FFF79AFE0346002B07D07B6816
:103940009B6BDA43084B1B681340074A1360204601
:10395000FCF728FC00BF0C37BD4690BD70900008F6
:10396000547F000810090020180A002098B500AF05
:10397000FCF714FC0446074BB3F900309BB201334B
:103980009BB21AB2034B1A802046FCF70BFC00BF17
:1039900098BD00BF9C07002098B500AFFCF7FEFB68
:1039A0000446104BB3F900309BB2013B9BB21AB2F4
:1039B0000C4B1A800B4BB3F90030002B0CDC094B7D
:1039C00000221A802046FCF7EDFB074B1B68002BFA
:1039D00005D0FFF7F1FE02E02046FCF7E3FB00BF55
:1039E00098BD00BF9C070020140A002080B483B05B
:1039F00000AF78607B687A685A607B685A687B6839
:103A00001A6000BF0C37BD4680BC704780B483B0DD
:103A100000AF786039607B681B683A685A607B68E1
:103A20001A683B681A607B683A681A603B687A6873
:103A30005A6000BF0C37BD4680BC704780B483B06D
:103A400000AF786039607B685B683A681A607B68B1
:103A50005A683B685A607B683A685A603B687A6883
:103A60001A6000BF0C37BD4680BC704780B483B07D
:103A700000AF78607B681B687A6852685A607B6820
:103A80005B687A6812681A607B687A685A607B683B
:103A90005A687B681A6000BF0C37BD4680BC70470F
:103AA00090B583B000AF174B1B687B60FCF776FBCB
:103AB00004467868FFF722FF7B68042283F83420ED
:103AC0007B684C33184600F099FB7868FFF754FD8B
:103AD0000346012B07D17B689B6F002B03D17868CD
:103AE000FFF772FC05E07B68143319460648FFF7C0
:103AF0008DFF2046FCF756FBFFF75EFE00BF0C373C
:103B0000BD4690BD140A00201C0A002080B586B076
:103B100002AFF860B9607A603B60FB681433184606
:103B2000FFF764FFFB687A681A62FB683A685A62BA
:103B3000FB68BA699A62FB68FA69DA62FB68986A9C
:103B4000FB68DB6A1A462321FEF77CFAFB68186AD9
:103B5000FB68596AFB689A6AFB68DB6A043B1A4493
:103B6000234B00F0A7FD0246FB68DA6197F820308E
:103B70001F2B04D996221F491F48FEF7EBFFFB6855
:103B800097F8202083F83620FB6897F8202083F8E8
:103B90003520FB6800229A63FB687A6A5A64FB68E6
:103BA0007A6A9A64FB6800221A63FB68002283F831
:103BB0003420FB6800229A67FB680022DA67FB6802
:103BC00003F14C00F9680023019300230093FB6884
:103BD0000A4A00F0EFFA0A4B1B68002B03D0084B8F
:103BE0001B68F8689847002318461037BD4680BD0B
:103BF000A13A00088C900008BC7F0008ED3F000847
:103C0000AC07002080B588B004AFF860B9607A6076
:103C10003B60FB68002B04D1E62212491248FEF7F4
:103C200099FFBB69002B04D1E7220E490F48FEF72C
:103C300091FFBA680121F868FFF762FB7B6A039382
:103C400097F820300293FB690193BB6900933B68AE
:103C50007A68B968F868FFF759FF034618461037C5
:103C6000BD4680BD9C900008E07F0008F47F0008FE
:103C700080B400AF024B1B681846BD4680BC70473D
:103C8000140A002080B582B000AF78607B68002BFA
:103C900005D14FF486721F491F48FEF75BFF7B6812
:103CA00093F8343003F00F03002B05D040F20D12CF
:103CB00018491A48FEF74EFF7868FFF77BFC034669
:103CC000012B05D04FF4877212491548FEF742FFC9
:103CD0007B6893F836207B6883F835207B6893F8FF
:103CE00035301A46012393401A467B689A637B68F5
:103CF000022283F83420786800F02CF9FFF7B8FF2F
:103D00000346002B01D0FFF757FD00231846083764
:103D1000BD4680BDAC900008E07F00080C80000824
:103D20004480000880B58AB004AFF860B9607A605A
:103D30003B60F9680120FFF775FB78617B69002B18
:103D400001D100231BE03868FFF736F838613B6982
:103D5000002B04D17869FFF7D1FB00230FE07B6AC9
:103D6000039397F8203002933B6801933B690093DB
:103D70007B68BA68F9687869FFF7C8FE7B691846FE
:103D80001837BD4680BD000090B583B000AFFCF78A
:103D900005FA0446174B1B687B607B6893F8343048
:103DA00003F00F03012B1DD17B685A697B689B6967
:103DB0009A4217D07B6814331846FFF757FE7B688A
:103DC00093F83530DB000C4A1A447B6814331946EB
:103DD0001046FFF733FE2046FCF7E4F9FFF7ECFC52
:103DE000002303E02046FCF7DDF9002318460C37DA
:103DF000BD4690BD140A00201009002090B585B082
:103E000000AF7860FCF7CAF904461C4B1B68FB60E6
:103E1000FB68002B05D14FF4FB7219491948FEF7D6
:103E200099FEF868FFF7C6FB0346012B05D040F268
:103E3000F71213491448FEF78DFEF86800F036F8C3
:103E4000FB684C333A1D0021184600F05DFBFB680F
:103E50004C33184600F010FA2046FCF7A3F9FFF7A0
:103E6000ABFCFB681B6B13F1020F02D1FB68002255
:103E70001A63002318461437BD4690BD140A00206B
:103E8000C0900008E07F00084480000880B584B03E
:103E900000AF78607868FDF7E5FAF860F868FFF73A
:103EA000ADFF034618461037BD4680BD90B583B0C0
:103EB00000AF78607B68002B05D140F2C322214916
:103EC0002148FEF747FE7868FFF774FB0346012B95
:103ED00005D04FF431721B491C48FEF73BFE7B684E
:103EE00093F8343003F00F03012B02D04FF0FF336F
:103EF00024E0FCF753F904467B6893F834305BB256
:103F000023F00F035BB243F002035BB2DAB27B68CB
:103F100083F834207868FFF7F1FC7B684C3318464F
:103F200000F0A8FA2046FCF73DF9094B1B68002B6E
:103F300003D0074B1B6878689847002318460C3756
:103F4000BD4690BDD0900008E07F00084480000886
:103F5000A407002090B583B000AF78607B68002B89
:103F600005D140F2EE221D491D48FEF7F3FD7868A9
:103F7000FFF720FB0346012B05D040F2EF22174943
:103F80001848FEF7E7FD7B6893F8343003F00F0321
:103F9000022B02D04FF0FF331BE0FCF7FFF8044682
:103FA0007B6814331846FFF761FD7B684C33184675
:103FB00000F060FA2046FCF7F5F87868FFF75EFC41
:103FC000094B1B68002B03D0074B1B687868984788
:103FD000002318460C37BD4690BD00BFE490000892
:103FE000E07F000844800008A807002080B584B066
:103FF00000AF78607B68FB60FB68002B05D140F266
:104000001B3217491748FEF7A5FDFB6893F83430BB
:1040100003F00F03022B05D04FF4477210491248EA
:10402000FEF798FDF868FFF7C5FA0346012B05D0A7
:1040300040F21D320A490D48FEF78CFDFB686FF017
:1040400001021A63FB6814331846FFF70FFDF86886
:10405000FFF714FCFFF7B0FB00BF1037BD4680BD73
:10406000F8900008E07F0008048100084480000800
:1040700080B483B000AF78607B687A685A607B68F0
:104080005A687B681A6000BF0C37BD4680BC704719
:1040900080B483B000AF786039607B681B683A6891
:1040A0005A607B681A683B681A607B683A681A60D5
:1040B0003B687A685A6000BF0C37BD4680BC7047C9
:1040C00080B483B000AF78607B681B687A68526800
:1040D0005A607B685B687A6812681A607B687A68E5
:1040E0005A607B685A687B681A6000BF0C37BD460F
:1040F00080BC704780B483B000AF78607B681A687A
:104100007B689A420CBF01230023DBB218460C37B0
:10411000BD4680BC704780B586B000AFF860B9601E
:104120007A603B60FB6897F820205A72FB685B7AE4
:1041300023F00103DAB2FB685A72FB68BA68DA61ED
:10414000FB687A681A62FB6800229A62FB683A6828
:104150005A6200237B610BE07B690233DB00FA6863
:10416000134404331846FFF783FF7B6901337B61F7
:104170007B69002BF0DD00BF1837BD4680BD80B5E0
:1041800084B000AF78600023FB600BE0FB68023373
:10419000DB007A68134404331846FFF791FFFB688D
:1041A0000133FB60FB68002BF0DD00BF1037BD461C
:1041B00080BD000080B586B002AFF860B9607A605B
:1041C0003B60FB68002B04D1BA220A490A48FEF77B
:1041D000C1FCBA680A21F868FFF792F83B7F0093A8
:1041E000BB693A687968F868FFF795FF00BF103738
:1041F000BD4680BD0C9100085881000890B583B081
:1042000000AF78607B68002B04D1CF221649174895
:10421000FEF7A0FC7B681846FFF7CCF903460A2B93
:1042200004D0D02210491248FEF794FC7B6818464F
:10423000FFF7A2F90346002B04D1D1220A490D4809
:10424000FEF788FCFBF7AAFF04467868FFF797FFA4
:104250002046FBF7A7FF7868FFF7B6F8002318465B
:104260000C37BD4690BD00BF1C9100085881000866
:104270006C810008A881000890B589B000AF786013
:104280007B68002B05D14FF4997272497248FEF792
:1042900061FC7B681846FFF78DF903460A2B05D0B1
:1042A00040F233126B496D48FEF754FCFBF776FF82
:1042B00004467868FFF763FF7B685B7A23F00103AD
:1042C000DAB27B685A722046FBF76CFF644B1B68BE
:1042D000002B04D0624B1B687A68104698477B68B5
:1042E0005B6A604A934205D940F2431259495E48DD
:1042F000FEF730FCFDF78AF802467B685B6A1A44D9
:104300007B689A62FBF74AFF0446584B7B617B69E6
:10431000BB600023FB6155E0FB699B0007F12002B5
:10432000134453F8183C1B683B61FB69DB001433F2
:104330005B423A691344FB60FB689A6A7B689B6A3C
:104340009A4208D0FB689A6A7B689B6AD31A454AEE
:1043500093421FD900E000BFFB699B0007F12002D8
:10436000134453F8183C1A68FB699B0007F12001BD
:104370000B4443F8182CFB699B0007F120021344FF
:1043800053F8182CFB69DB0079690B445B689A428F
:10439000C2D100E000BFFB69002B10D0FB69591CA3
:1043A000FB699B0007F12002134453F8183C03F10A
:1043B00008028B0007F120010B4443F8182CFB691D
:1043C0000133FB61FB69002BD5D0294B1B680133FE
:1043D000274A1360264B1B68BB61BA687B6814339D
:1043E00019461046FFF754FE0223FB611EE0BB692D
:1043F00003F00303002B1DD1FB69C3F101039B00F4
:1044000007F12002134453F8180CFB69C3F10103B0
:104410000233DB007A68134404331946FFF738FE91
:10442000BB699B08BB61FB690133FB61FB69012B25
:10443000DDD900E000BF7B685B7A43F00103DAB2AC
:104440007B685A722046FBF7ADFE002318462437DE
:10445000BD4690BD2C910008588100086C81000871
:1044600008090020FEFFFF7F0C820008B007002033
:10447000C007002090B583B000AF78607B68002B48
:1044800005D140F2AB121C491C48FEF763FB7B6868
:104490001846FFF78FF803460A2B05D04FF4D67263
:1044A00015491748FEF756FB7B685B7A03F001035A
:1044B000002B02D14FF0FF3319E0124B1B68002B89
:1044C00004D0104B1B687A6810469847FBF766FECD
:1044D00004467868FFF753FE2046FBF763FE7B68CF
:1044E0005B7A23F00103DAB27B685A720023184624
:1044F0000C37BD4690BD00BF3C91000858810008B4
:104500006C8100080409002080B584B000AFF86019
:10451000B9607A60FB68002B05D14FF4E7721F4940
:104520001F48FEF717FBFB681846FFF743F80346E2
:104530000A2B05D040F2CF1218491A48FEF70AFBA1
:10454000BB68032B24D801A252F823F0674500086A
:104550005D4500087145000881450008FB685A6AFE
:104560007B681A6014E07B681A68FB685A620FE087
:10457000FB685B7A23F00203DAB2FB685A7207E049
:10458000FB685B7A43F00203DAB2FB685A7200BF41
:10459000002318461037BD4680BD00BF4C9100086F
:1045A000588100086C81000890B583B000AFFCF71B
:1045B0002DFF7860FBF7F2FD044644E0294B1B68B1
:1045C000143B3B603B689B6A7A68D31A264A934245
:1045D00040D8264B1B68002B03D0244B1B6838683F
:1045E00098473868FFF7CBFD3B68DB693A68126A89
:1045F00010469847FCF70AFF78601D4B1B68002B9C
:1046000003D01B4B1B68386898473B685B7A03F004
:104610000203002B10D03B685B7A03F00103002BF0
:104620000AD03B685B7A23F00103DAB23B685A7226
:104630003868FFF721FE06E03B685B7A23F0010350
:10464000DAB23B685A720748FFF754FD0346002B65
:10465000B4D000E000BF2046FBF7A4FD00BF0C373C
:10466000BD4690BDB0070020FEFFFF7FB8070020C9
:10467000BC07002080B582B000AF00237B6009E05A
:104680007B68DB00074A13441846FFF7F1FC7B68A0
:1046900001337B607B68002BF2D000BF0837BD463A
:1046A00080BD00BFB007002080B400AF00BFBD4692
:1046B00080BC704780B489B000AFF860B9607A60A0
:1046C0003B607B680433BB61BB6923F00703BB61BC
:1046D000BB69403BBB61BB697B610023FB6108E0B8
:1046E000FB699B007A691344134A1A60FB69013322
:1046F000FB61FB690F2BF3D9BA687B691A627B698E
:1047000000225A627B6900229A627B690022DA6287
:104710007B6900221A633A687B695A63FA687B698D
:104720009A637B694FF08072DA63BB69184624375D
:10473000BD4680BC704700BFEFBEADDE80B500AFA8
:104740002548FEF7C7F9254B1B889BB2194624481C
:10475000FEF7C0F9214B1B889BB203F00103002B2D
:1047600002D02048FEF7B6F91C4B1B889BB203F021
:104770000203002B02D01C48FEF7ACF9174B1B8834
:104780009BB203F00403002B02D01848FEF7A2F9F5
:10479000124B1B889BB203F00803002B02D0144875
:1047A000FEF798F90D4B1B889BB203F48073002B26
:1047B00002D01048FEF78EF9084B1B889BB203F419
:1047C0000073002B02D00C48FEF784F90B48FEF76B
:1047D00081F900BF80BD00BF308200082AED00E0F3
:1047E0004082000858820008648200087082000835
:1047F00078820008808200088C8200089882000875
:1048000080B500AF2648FEF765F9264B1B78DBB272
:1048100019462548FEF75EF9224B1B78DBB203F000
:104820000103002B02D02148FEF754F91D4B1B78E1
:10483000DBB203F00203002B02D01D48FEF74AF959
:10484000184B1B78DBB203F00403002B02D019488D
:10485000FEF740F9134B1B78DBB203F00803002B83
:1048600002D01548FEF736F90E4B1B78DBB203F089
:104870001003002B02D01148FEF72CF9094B1B78CE
:10488000DBB25BB2002B06DA0D4B1B6819460D48F4
:10489000FEF720F902E00C48FEF71CF900BF80BDCE
:1048A0009C82000829ED00E0A8820008C082000870
:1048B000CC820008D8820008E8820008F482000850
:1048C00038ED00E0FC8200089882000880B500AF57
:1048D0002148FEF7FFF8214B1B78DBB21946204830
:1048E000FEF7F8F81D4B1B78DBB203F00103002B39
:1048F00002D01C48FEF7EEF8184B1B78DBB203F031
:104900000203002B02D01848FEF7E4F8134B1B7883
:10491000DBB203F00803002B02D01448FEF7DAF8EC
:104920000E4B1B78DBB203F01003002B02D01048B3
:10493000FEF7D0F8094B1B78DBB25BB2002B06DA2E
:104940000C4B1B6819460C48FEF7C4F802E00B48F4
:10495000FEF7C0F800BF80BD0C83000828ED00E022
:10496000208300083883000844830008508300082F
:104970005C83000834ED00E068830008988200083A
:1049800080B500AF164B1B6803F00203002B02D06A
:104990001448FEF79FF8124B1B6803F08043002B6E
:1049A00014D0114B1B78DBB2002B01D0FFF728FF8E
:1049B0000E4B1B78DBB2002B01D0FFF787FF0C4BAF
:1049C0001B889BB2002B01D0FFF7B8FE044B1B687D
:1049D000002B02DA0748FEF77DF800BF80BD00BF5C
:1049E0002CED00E07883000829ED00E028ED00E0E0
:1049F0002AED00E09083000880B584B000AF7860B5
:104A00007B680433FB60434B1B68002B07D0414B92
:104A10001B6878689847B860BB68002B75D0FB6846
:104A2000DB6B19463C48FEF755F8FB681B6A1946D4
:104A30003A48FEF74FF8FB685B6A19463848FEF7BC
:104A400049F8FB689B6A19463648FEF743F8FB684D
:104A5000DB6A19463448FEF73DF8FB681B681946C7
:104A60003248FEF737F8FB685B6819463048FEF7B6
:104A700031F8FB689B6819462E48FEF72BF8FB6857
:104A8000DB6819462C48FEF725F8FB681B691946B8
:104A90002A48FEF71FF8FB685B6919462848FEF7AD
:104AA00019F8FB689B6919462648FEF713F8FB685E
:104AB000DB6919462448FEF70DF8FB681B6B1946A5
:104AC0002248FEF707F8FB685B6B19462048FEF7A3
:104AD00001F8FB689B6B19461E48FDF7FBFF7B68DE
:104AE0001B6803F00403002B09D0FFF7C1F803464D
:104AF00019461948FDF7EEFF01F004FD02E01748E2
:104B0000FDF7E8FFFFF73CFFFEE700BF1037BD46AB
:104B100080BD00BFC4070020A0830008B083000848
:104B2000C0830008D0830008E0830008F0830008F9
:104B300000840008108400082084000830840008E5
:104B400040840008508400086084000870840008D5
:104B50008084000890840008A0840008C0840008B5
:104B600080B483B000AF78607B6893FAA3F3B3FAA4
:104B700083F37A68002A01D14FF0FF3301331846DE
:104B80000C37BD4680BC704780B582B000AF7860FE
:104B900039600A4B1B6C002B04D188220849094854
:104BA000FDF7D8FF054B1B6C1B683A687968034812
:104BB000984700BF0837BD4680BD00BFC80700202A
:104BC000D09100080085000880B582B000AF786001
:104BD00039600A4B1B6C002B04D18F22084909480D
:104BE000FDF7B8FF054B1B6C5B683A6879680348B2
:104BF000984700BF0837BD4680BD00BFC8070020EA
:104C0000DC9100080085000880B582B000AF7860B4
:104C1000094B1B6C002B04D1962208490848FDF76C
:104C200099FF054B1B6C9B687968034898470346BE
:104C300018460837BD4680BDC8070020EC91000823
:104C40000085000880B586B000AFF860B9607A6072
:104C5000FB68002B04D1D32215491648FDF77AFFD3
:104C60007B687B6116E0FB681B6CDB68F868984723
:104C700038613B69B3F1FF3F10D03B69DAB2BB68E2
:104C80001A70BB680133BB607B68013B7B603B698A
:104C90000A2B05D07B68002BE5D102E000BF00E0C5
:104CA00000BF7A697B68D31A18461837BD4680BDA5
:104CB000489200081885000880B586B000AFF860FB
:104CC000B9607A60FB68002B04D1E72217491848C5
:104CD000FDF740FF7B687B611DE0BB681B780A2BFA
:104CE0000BD1FB681B8B03F04003002B05D0FB6846
:104CF0001B6C9B680D21F8689847FB681B6C9B68D0
:104D0000BA6812781146F8689847BB680133BB60EF
:104D10007B68013B7B607B68002BDED17A697B6816
:104D2000D31A18461837BD4680BD00BF78920008D8
:104D30001885000880B588B000AFF860B9607A6067
:104D4000FB68002B05D14FF483722D492D48FDF7E8
:104D500001FF7B68FB61FB68DB6CBB61BB69002BFF
:104D600044D14FF4857226492748FDF7F3FE3DE014
:104D7000FBF714FA7861BB69DA88BB699B889A42B1
:104D800007D1BB699B68002B03D17869FBF70AFA4E
:104D90002FE0BB691B68BA69D28813441B783B615A
:104DA000BB69DB8801339AB2BB69DA80BB69DA88F8
:104DB000FB689B6CC3F38F239BB29A4202D3BB69FF
:104DC0000022DA80BB699B68012B02D1BB690022FB
:104DD0009A607869FBF7E6F93B69DAB2BB681A704A
:104DE000BB680133BB607B68013B7B607B68002B49
:104DF000BED1FA697B68D31A18462037BD4680BDFC
:104E000038920008188500082C85000880B586B007
:104E100000AFF860B9607A60FB68002B05D14FF4F1
:104E20009B721B491B48FDF795FE7B687B61FB6805
:104E30001B6D3B613B69002B1FD14FF49D721449E0
:104E40001548FDF787FE18E0FB681B6C9B68BA6885
:104E500012781146F86898470346B3F1FF3F06D130
:104E60003B694FF0FF31184600F0F8FB05E0BB68E6
:104E70000133BB607B68013B7B607B68002BE3D127
:104E80007A697B68D31A18461837BD4680BD00BFC3
:104E900068920008188500084085000880B500AFBA
:104EA000084B1B68002B0BD10748FDF713FE074882
:104EB000FDF710FE0648FDF70DFE024B01221A60B9
:104EC00000BF80BD0C080020508500085C850008EC
:104ED000C085000880B584B000AF78600023FB6017
:104EE0007B68002B05D140F22A220F490F48FDF7BD
:104EF00031FE7B68BB60BB680022DA64BB680022BD
:104F00001A65BB681B6C1B68002B08D0BB681B6C48
:104F10001B68BA6844321146B8689847F860FB6865
:104F200018461037BD4680BDF8910008C4850008BA
:104F300080B586B000AF78600B467B800023FB8293
:104F40007B68002B05D140F23D2278497848FDF777
:104F500001FE7B683B617B8803F40073002B08D063
:104F60007B68DB8A03F40073002B02D16FF0070328
:104F7000D8E07B8803F40063002B08D07B68DB8AD1
:104F800003F40063002B02D16FF00703CAE07B88B3
:104F900003F48073002B08D07B68DB8A03F48073F2
:104FA000002B02D16FF00703BCE07B8803F4806321
:104FB000002B08D07B68DB8A03F48063002B02D1CE
:104FC0006FF00703AEE07B8803F04003002B05D1B0
:104FD0007B681B8B03F04003002B01D04023FB8236
:104FE0007B88DBB29AB27B681A833B69DB6C002B4F
:104FF00047D17B8803F48073002B3ED03B699B6CC8
:10500000C3F38F239BB20C331846FDF7D5FEF8602F
:10501000FB68002B05D14FF4177244494548FDF752
:1050200099FDFB6803F10C02FB681A60FB681868C5
:105030003B699B6CC3F38F239BB21A460021FDF79B
:1050400001F8FB6800229A80FB680022DA80FB6886
:1050500000229A603B69FA68DA647B681B8B43F430
:1050600080739AB27B681A833B691B6C5B684FF450
:1050700080721021386998470FE03B690022DA649A
:105080000BE07B8803F48073002B06D07B681B8BBE
:1050900043F480739AB27B681A833B691B6D002BC3
:1050A0002CD17B8803F48063002B23D00C20FDF7E8
:1050B00083FEB860BB68002B05D140F29B221B49E0
:1050C0001D48FDF747FDBB68184600F0A5FA3B698F
:1050D000BA681A657B681B8B43F480639AB27B685D
:1050E0001A833B691B6C5B684FF48062102138693E
:1050F00098470FE03B6900221A650BE07B8803F4B8
:105100008063002B06D07B681B8B43F480639AB2CC
:105110007B681A837B681A8BFB8A13439AB27B687D
:105120001A83002318461837BD4680BD0892000830
:10513000C48500082C850008D485000880B586B099
:1051400000AF78607B68002B05D140F2CE222F495A
:105150002F48FDF7FFFC7B687B617B689B7E012B02
:1051600001D900234EE07B681B8B03F48073002B76
:1051700020D07B69DB6C3B613B69002B05D140F2A1
:10518000D92222492348FDF7E5FC3869FDF77CFF69
:105190007B690022DA647B681B8B23F480739AB2EC
:1051A0007B681A837B691B6C5B684FF480721121EA
:1051B000786998477B681B8B03F48063002B20D0B1
:1051C0007B691B6DFB60FB68002B05D140F2FF2261
:1051D0000E491148FDF7BEFCF868FDF755FF7B69E5
:1051E00000221A657B681B8B23F480639AB27B686C
:1051F0001A837B691B6C5B684FF4806211217869AC
:105200009847002318461837BD4680BD18920008FD
:10521000C48500082C850008D485000880B586B0B8
:1052200000AFF860B9607A603B60FB68002B05D185
:1052300040F21E3211491248FDF78CFC3B68002BEE
:1052400001D1002316E0FB687B61FB681B8B03F434
:105250008073002B07D03B681A4679687869FFF79E
:1052600069FD034606E03B681A4679687869FFF7EE
:10527000E9FC034618461837BD4680BD2892000851
:10528000C485000880B586B000AFF860B9607A6068
:105290003B60FB68002B05D14FF44E721149124858
:1052A000FDF758FC3B68002B01D1002316E0FB689A
:1052B0007B61FB681B8B03F48063002B07D03B688A
:1052C0001A4679687869FFF7A1FD034606E03B6856
:1052D0001A4679687869FFF7EFFC034618461837D5
:1052E000BD4680BD58920008C485000880B588B0CE
:1052F00000AFF860B9607A600023FB61FB68002BA7
:1053000005D140F2B5322B492B48FDF723FCFB6851
:10531000BB61BB68022B04D0032B12D0012B08D039
:1053200038E0FB68DB8A43F020039AB2FB68DA823C
:105330003AE0FB68DB8A23F020039AB2FB68DA824A
:1053400032E07B68002B2ED07B687B617B695B68D9
:10535000C3F38F239AB2BB699B6CC3F38F239BB2B9
:105360009A4205D0BB699B7E002B01D007231CE02D
:10537000BB697A69443392E8030083E80300BB69A0
:105380009B7E002B0FD0BB691B6C1B687968B869CA
:10539000984708E0BB691B6C5B687A68B968B869B4
:1053A0009847F86100E000BFFB6918462037BD460A
:1053B00080BD00BF88920008C485000880B586B013
:1053C00000AFF860B9607A603B60FB68002B05D1E4
:1053D00040F2614218491948FDF7BCFBFB687B614C
:1053E0007B6900221A757B690022DA617B690022E1
:1053F0001A627B69124A5A627B69124A9A627B6915
:10540000114ADA627B69114A1A637B69104A5A634E
:105410007B69104A9A637B693A68DA637B689BB25E
:105420001A46B9687869FCF7F6F838613B6918469E
:105430001837BD4680BD00BF9C9200081885000843
:10544000D54E0008314F00083D5100081D5200089C
:1054500085520008ED52000880B588B000AF786032
:1054600039603B68DBB2012B03D0022B00F088804F
:105470008FE04FF0FF33FB617B68DB6CBB61BB6986
:10548000002B05D140F28D4244494548FDF762FBAF
:105490007B681B6CDB6878689847F861FB69B3F13F
:1054A000FF3F3DD0FAF77AFE7861BB691B68BA69A5
:1054B00092881344FA69D2B21A70BB699B8801338F
:1054C0009AB2BB699A80BB699A887B689B6CC3F36C
:1054D0008F239BB29A4202D3BB6900229A80BB6998
:1054E0009A88BB69DB889A4216D1BB69DB88013395
:1054F0009AB2BB69DA80BB6901229A60BB69DA881B
:105500007B689B6CC3F38F239BB29A4202D3BB6927
:105510000022DA80FFF7C2FC7869FAF743FEB7E7AA
:1055200000BF7B68DB69002B32D0FAF737FE786169
:10553000BB699A88BB69DB889A4206D3BB699B88A2
:105540001A46BB69DB88D31A0CE07B689B6CC3F3FB
:105550008F239BB21A46BB69DB881946BB699B88BF
:10556000CB1AD31A3B617869FAF71CFE3B69002B12
:105570000ED07B68DB697A6839691046984707E086
:105580007B681B6DFB60FB68184600F0E5F800E0E7
:1055900000BF00BF2037BD4680BD00BFB4920008E9
:1055A0002C85000880B483B000AF78607B687A688F
:1055B0005A607B685A687B681A6000BF0C37BD462A
:1055C00080BC704780B483B000AF786039607B687E
:1055D0005B683A681A607B685A683B685A607B6807
:1055E0003A685A603B687A681A6000BF0C37BD465B
:1055F00080BC704780B483B000AF78607B681A6865
:105600007B689A420CBF01230023DBB218460C379B
:10561000BD4680BC7047000080B584B000AF7860A4
:105620007B68002B04D115220A490B48FDF792FA3A
:10563000FAF7B4FDF8607B6800221A607B680433D7
:105640001846FFF7AFFFF868FAF7ACFD00BF103758
:10565000BD4680BDC8920008E885000880B586B0C8
:1056600000AF786039607B68002B04D12422354973
:105670003548FDF76FFA00237B61FEF7F9FAF86011
:10568000FAF78CFD38617B681B68012B4FD07B6873
:1056900004331846FFF7AEFF0346002B04D12D223A
:1056A00028492A48FDF756FA3B68002B03D16FF0D2
:1056B00001037B613EE0FB6800221A63F868FEF795
:1056C000F5FB7B681A1DFB68143319461046FFF77B
:1056D00079FFFAF763FDB860FCF780FC0346002B06
:1056E00008D018491A48FDF7F5F94022154919481C
:1056F000FDF730FAB868FAF755FD3B68002B0BDD73
:10570000FB684C333A4600211846FEF7FDFEFB6865
:105710004C331846FEF7B0FD3869FAF743FDFEF743
:105720004BF8FB681B6B7B61FAF738FD38617B68CF
:1057300000221A603869FAF735FD7B691846183778
:10574000BD4680BDDC920008E885000800860008A0
:10575000308600085886000880B584B000AF7860B5
:105760007B68002B04D1642215491648FDF7F2F935
:105770007B681B68012B1ED0FAF710FDF8607B6870
:1057800001221A607B6804331846FFF733FF034693
:10579000002B0CD17B685B68143BBB60B868FEF7DC
:1057A000D9FBF868FAF7FEFCFEF706F804E0F868A3
:1057B000FAF7F8FC00E000BF1037BD4680BD00BF1F
:1057C000F0920008E885000880B500AF204B1B6808
:1057D00093F8213003F00203DBB2002B04D11D4B00
:1057E00000221A701B4B30E01B4B1B68002B08D0AB
:1057F000194B1B6880221946164801F02BFE154BE9
:1058000023E001F095FA0346002B07D0114B134A11
:1058100092E8030018600433197009E00D4B104A38
:1058200092E8030018600433198002330A0C1A70DE
:10583000084801F091FD03461A46064B13440949F6
:105840001A460B461B881380024B184680BD00BFCA
:10585000300A002024080020200800205C86000870
:10586000648600086C86000880B582B000AF78605E
:105870000C4B1B68002B04D1A3220B490B48FDF7EE
:1058800069F9084B1A687B68DBB203F00103D9B2EF
:1058900092F8213061F3410382F8213000BF0837CC
:1058A000BD4680BD300A00200493000870860008C1
:1058B00080B582B000AF0023FB71114B1B68002B39
:1058C0000CD1AF220F491048FDF744F906E00C4B0C
:1058D0001B684FF0FF311846FCF740FA084B1B6875
:1058E000D3F80C02FA1D01234FF0FF31FBF7E2FF62
:1058F0000346012BEBD1FB7918460837BD4680BD26
:10590000300A00201C9300087086000880B582B021
:1059100000AF78603960094B1B68002B04D1BE22B0
:1059200007490848FDF716F9044B1B681846FCF7B1
:10593000C5FA002318460837BD4680BD300A00204E
:105940002C9300087086000880B584B000AF7860A2
:105950000023FB602D4B1B68002B04D1D1222C4966
:105960002C48FDF7F7F87868FBF780FEF860FB68D5
:10597000002B04D179682848FDF7ACF842E0234BAE
:105980001B68D3F80C22FB689A423AD040F24311CC
:10599000F868FBF7B3FE0346002B33D11B4B1B68A3
:1059A000D3F80C32002B0ED0184B1B68D3F80C32F6
:1059B0001846FBF731FF154B1B68D3F80C3200215A
:1059C0001846FBF7FFFF114B1B6803F5DB735022F2
:1059D0000021184601F072FC0C4B1A680B4B1B6837
:1059E0000021A3F80612B3F80632A2F80832074BDA
:1059F0001B68FA68C3F80C220849F868FBF7E2FF55
:105A000000E000BF1037BD4680BD00BF300A002057
:105A10003C93000870860008848600080D59000831
:105A200080B582B000AF78600B48FDF753F801F005
:105A30007FF90346012B02D1786801F09FFBFFF745
:105A4000C3FE03467A6819460448FDF743F800BFD1
:105A50000837BD4680BD00BFA4860008A8860008A0
:105A600080B582B000AF78600848FDF733F8FFF7E3
:105A7000ABFE01467B6803F5DB731A460448FDF76D
:105A800029F8002318460837BD4680BDB0860008B7
:105A9000A886000880B584B000AF78607B68B3F852
:105AA0000632002B00F09D807B689B8C042B51D923
:105AB0007B6803F5B3707B6803F5DB7350221946EE
:105AC00001F0CCFB0346002B00F08B800023FB6031
:105AD00019E0FA6813469B0013441B0120337A68CF
